{
  "_format": "hh-sol-artifact-1",
  "contractName": "MintableERC721",
  "sourceName": "contracts/test/Mintable.sol",
  "abi": [
    {
      "inputs": [],
      "stateMutability": "nonpayable",
      "type": "constructor"
    },
    {
      "anonymous": false,
      "inputs": [
        {
          "indexed": true,
          "internalType": "address",
          "name": "owner",
          "type": "address"
        },
        {
          "indexed": true,
          "internalType": "address",
          "name": "approved",
          "type": "address"
        },
        {
          "indexed": true,
          "internalType": "uint256",
          "name": "tokenId",
          "type": "uint256"
        }
      ],
      "name": "Approval",
      "type": "event"
    },
    {
      "anonymous": false,
      "inputs": [
        {
          "indexed": true,
          "internalType": "address",
          "name": "owner",
          "type": "address"
        },
        {
          "indexed": true,
          "internalType": "address",
          "name": "operator",
          "type": "address"
        },
        {
          "indexed": false,
          "internalType": "bool",
          "name": "approved",
          "type": "bool"
        }
      ],
      "name": "ApprovalForAll",
      "type": "event"
    },
    {
      "anonymous": false,
      "inputs": [
        {
          "indexed": true,
          "internalType": "address",
          "name": "from",
          "type": "address"
        },
        {
          "indexed": true,
          "internalType": "address",
          "name": "to",
          "type": "address"
        },
        {
          "indexed": true,
          "internalType": "uint256",
          "name": "tokenId",
          "type": "uint256"
        }
      ],
      "name": "Transfer",
      "type": "event"
    },
    {
      "inputs": [
        {
          "internalType": "address",
          "name": "to",
          "type": "address"
        },
        {
          "internalType": "uint256",
          "name": "tokenId",
          "type": "uint256"
        }
      ],
      "name": "approve",
      "outputs": [],
      "stateMutability": "nonpayable",
      "type": "function"
    },
    {
      "inputs": [
        {
          "internalType": "address",
          "name": "owner",
          "type": "address"
        }
      ],
      "name": "balanceOf",
      "outputs": [
        {
          "internalType": "uint256",
          "name": "",
          "type": "uint256"
        }
      ],
      "stateMutability": "view",
      "type": "function"
    },
    {
      "inputs": [
        {
          "internalType": "uint256",
          "name": "tokenId",
          "type": "uint256"
        }
      ],
      "name": "getApproved",
      "outputs": [
        {
          "internalType": "address",
          "name": "",
          "type": "address"
        }
      ],
      "stateMutability": "view",
      "type": "function"
    },
    {
      "inputs": [
        {
          "internalType": "address",
          "name": "owner",
          "type": "address"
        },
        {
          "internalType": "address",
          "name": "operator",
          "type": "address"
        }
      ],
      "name": "isApprovedForAll",
      "outputs": [
        {
          "internalType": "bool",
          "name": "",
          "type": "bool"
        }
      ],
      "stateMutability": "view",
      "type": "function"
    },
    {
      "inputs": [
        {
          "internalType": "uint256",
          "name": "tokenId",
          "type": "uint256"
        },
        {
          "internalType": "address",
          "name": "owner",
          "type": "address"
        }
      ],
      "name": "mint",
      "outputs": [],
      "stateMutability": "nonpayable",
      "type": "function"
    },
    {
      "inputs": [
        {
          "internalType": "uint256",
          "name": "tokenId",
          "type": "uint256"
        }
      ],
      "name": "mint",
      "outputs": [],
      "stateMutability": "nonpayable",
      "type": "function"
    },
    {
      "inputs": [],
      "name": "name",
      "outputs": [
        {
          "internalType": "string",
          "name": "",
          "type": "string"
        }
      ],
      "stateMutability": "view",
      "type": "function"
    },
    {
      "inputs": [
        {
          "internalType": "uint256",
          "name": "tokenId",
          "type": "uint256"
        }
      ],
      "name": "ownerOf",
      "outputs": [
        {
          "internalType": "address",
          "name": "",
          "type": "address"
        }
      ],
      "stateMutability": "view",
      "type": "function"
    },
    {
      "inputs": [
        {
          "internalType": "address",
          "name": "from",
          "type": "address"
        },
        {
          "internalType": "address",
          "name": "to",
          "type": "address"
        },
        {
          "internalType": "uint256",
          "name": "tokenId",
          "type": "uint256"
        }
      ],
      "name": "safeTransferFrom",
      "outputs": [],
      "stateMutability": "nonpayable",
      "type": "function"
    },
    {
      "inputs": [
        {
          "internalType": "address",
          "name": "from",
          "type": "address"
        },
        {
          "internalType": "address",
          "name": "to",
          "type": "address"
        },
        {
          "internalType": "uint256",
          "name": "tokenId",
          "type": "uint256"
        },
        {
          "internalType": "bytes",
          "name": "_data",
          "type": "bytes"
        }
      ],
      "name": "safeTransferFrom",
      "outputs": [],
      "stateMutability": "nonpayable",
      "type": "function"
    },
    {
      "inputs": [
        {
          "internalType": "address",
          "name": "operator",
          "type": "address"
        },
        {
          "internalType": "bool",
          "name": "approved",
          "type": "bool"
        }
      ],
      "name": "setApprovalForAll",
      "outputs": [],
      "stateMutability": "nonpayable",
      "type": "function"
    },
    {
      "inputs": [
        {
          "internalType": "bytes4",
          "name": "interfaceId",
          "type": "bytes4"
        }
      ],
      "name": "supportsInterface",
      "outputs": [
        {
          "internalType": "bool",
          "name": "",
          "type": "bool"
        }
      ],
      "stateMutability": "view",
      "type": "function"
    },
    {
      "inputs": [],
      "name": "symbol",
      "outputs": [
        {
          "internalType": "string",
          "name": "",
          "type": "string"
        }
      ],
      "stateMutability": "view",
      "type": "function"
    },
    {
      "inputs": [
        {
          "internalType": "uint256",
          "name": "tokenId",
          "type": "uint256"
        }
      ],
      "name": "tokenURI",
      "outputs": [
        {
          "internalType": "string",
          "name": "",
          "type": "string"
        }
      ],
      "stateMutability": "view",
      "type": "function"
    },
    {
      "inputs": [
        {
          "internalType": "address",
          "name": "from",
          "type": "address"
        },
        {
          "internalType": "address",
          "name": "to",
          "type": "address"
        },
        {
          "internalType": "uint256",
          "name": "tokenId",
          "type": "uint256"
        }
      ],
      "name": "transferFrom",
      "outputs": [],
      "stateMutability": "nonpayable",
      "type": "function"
    }
  ],
  "bytecode": "0x60806040523480156200001157600080fd5b506040518060400160405280600381526020017f4e465400000000000000000000000000000000000000000000000000000000008152506040518060400160405280600381526020017f4e46540000000000000000000000000000000000000000000000000000000000815250816000908051906020019062000096929190620000b8565b508060019080519060200190620000af929190620000b8565b505050620001cd565b828054620000c69062000168565b90600052602060002090601f016020900481019282620000ea576000855562000136565b82601f106200010557805160ff191683800117855562000136565b8280016001018555821562000136579182015b828111156200013557825182559160200191906001019062000118565b5b50905062000145919062000149565b5090565b5b80821115620001645760008160009055506001016200014a565b5090565b600060028204905060018216806200018157607f821691505b602082108114156200019857620001976200019e565b5b50919050565b7f4e487b7100000000000000000000000000000000000000000000000000000000600052602260045260246000fd5b61275b80620001dd6000396000f3fe608060405234801561001057600080fd5b50600436106100f55760003560e01c806370a0823111610097578063a22cb46511610066578063a22cb46514610282578063b88d4fde1461029e578063c87b56dd146102ba578063e985e9c5146102ea576100f5565b806370a08231146101fc57806394bf804d1461022c57806395d89b4114610248578063a0712d6814610266576100f5565b8063095ea7b3116100d3578063095ea7b31461017857806323b872dd1461019457806342842e0e146101b05780636352211e146101cc576100f5565b806301ffc9a7146100fa57806306fdde031461012a578063081812fc14610148575b600080fd5b610114600480360381019061010f91906118a7565b61031a565b6040516101219190611cb3565b60405180910390f35b6101326103fc565b60405161013f9190611cce565b60405180910390f35b610162600480360381019061015d9190611901565b61048e565b60405161016f9190611c4c565b60405180910390f35b610192600480360381019061018d9190611867565b610513565b005b6101ae60048036038101906101a99190611751565b61062b565b005b6101ca60048036038101906101c59190611751565b61068b565b005b6101e660048036038101906101e19190611901565b6106ab565b6040516101f39190611c4c565b60405180910390f35b610216600480360381019061021191906116e4565b61075d565b6040516102239190611eb0565b60405180910390f35b6102466004803603810190610241919061192e565b610815565b005b610250610823565b60405161025d9190611cce565b60405180910390f35b610280600480360381019061027b9190611901565b6108b5565b005b61029c60048036038101906102979190611827565b6108c2565b005b6102b860048036038101906102b391906117a4565b610a43565b005b6102d460048036038101906102cf9190611901565b610aa5565b6040516102e19190611cce565b60405180910390f35b61030460048036038101906102ff9190611711565b610b4c565b6040516103119190611cb3565b60405180910390f35b60007f80ac58cd000000000000000000000000000000000000000000000000000000007bffffffffffffffffffffffffffffffffffffffffffffffffffffffff1916827bffffffffffffffffffffffffffffffffffffffffffffffffffffffff191614806103e557507f5b5e139f000000000000000000000000000000000000000000000000000000007bffffffffffffffffffffffffffffffffffffffffffffffffffffffff1916827bffffffffffffffffffffffffffffffffffffffffffffffffffffffff1916145b806103f557506103f482610be0565b5b9050919050565b60606000805461040b906120d5565b80601f0160208091040260200160405190810160405280929190818152602001828054610437906120d5565b80156104845780601f1061045957610100808354040283529160200191610484565b820191906000526020600020905b81548152906001019060200180831161046757829003601f168201915b5050505050905090565b600061049982610c4a565b6104d8576040517f08c379a00000000000000000000000000000000000000000000000000000000081526004016104cf90611e10565b60405180910390fd5b6004600083815260200190815260200160002060009054906101000a900473ffffffffffffffffffffffffffffffffffffffff169050919050565b600061051e826106ab565b90508073ffffffffffffffffffffffffffffffffffffffff168373ffffffffffffffffffffffffffffffffffffffff16141561058f576040517f08c379a000000000000000000000000000000000000000000000000000000000815260040161058690611e70565b60405180910390fd5b8073ffffffffffffffffffffffffffffffffffffffff166105ae610cb6565b73ffffffffffffffffffffffffffffffffffffffff1614806105dd57506105dc816105d7610cb6565b610b4c565b5b61061c576040517f08c379a000000000000000000000000000000000000000000000000000000000815260040161061390611d90565b60405180910390fd5b6106268383610cbe565b505050565b61063c610636610cb6565b82610d77565b61067b576040517f08c379a000000000000000000000000000000000000000000000000000000000815260040161067290611e90565b60405180910390fd5b610686838383610e55565b505050565b6106a683838360405180602001604052806000815250610a43565b505050565b6000806002600084815260200190815260200160002060009054906101000a900473ffffffffffffffffffffffffffffffffffffffff169050600073ffffffffffffffffffffffffffffffffffffffff168173ffffffffffffffffffffffffffffffffffffffff161415610754576040517f08c379a000000000000000000000000000000000000000000000000000000000815260040161074b90611dd0565b60405180910390fd5b80915050919050565b60008073ffffffffffffffffffffffffffffffffffffffff168273ffffffffffffffffffffffffffffffffffffffff1614156107ce576040517f08c379a00000000000000000000000000000000000000000000000000000000081526004016107c590611db0565b60405180910390fd5b600360008373ffffffffffffffffffffffffffffffffffffffff1673ffffffffffffffffffffffffffffffffffffffff168152602001908152602001600020549050919050565b61081f81836110b1565b5050565b606060018054610832906120d5565b80601f016020809104026020016040519081016040528092919081815260200182805461085e906120d5565b80156108ab5780601f10610880576101008083540402835291602001916108ab565b820191906000526020600020905b81548152906001019060200180831161088e57829003601f168201915b5050505050905090565b6108bf33826110b1565b50565b6108ca610cb6565b73ffffffffffffffffffffffffffffffffffffffff168273ffffffffffffffffffffffffffffffffffffffff161415610938576040517f08c379a000000000000000000000000000000000000000000000000000000000815260040161092f90611d50565b60405180910390fd5b8060056000610945610cb6565b73ffffffffffffffffffffffffffffffffffffffff1673ffffffffffffffffffffffffffffffffffffffff16815260200190815260200160002060008473ffffffffffffffffffffffffffffffffffffffff1673ffffffffffffffffffffffffffffffffffffffff16815260200190815260200160002060006101000a81548160ff0219169083151502179055508173ffffffffffffffffffffffffffffffffffffffff166109f2610cb6565b73ffffffffffffffffffffffffffffffffffffffff167f17307eab39ab6107e8899845ad3d59bd9653f200f220920489ca2b5937696c3183604051610a379190611cb3565b60405180910390a35050565b610a54610a4e610cb6565b83610d77565b610a93576040517f08c379a0000000000000000000000000000000000000000000000000000000008152600401610a8a90611e90565b60405180910390fd5b610a9f8484848461127f565b50505050565b6060610ab082610c4a565b610aef576040517f08c379a0000000000000000000000000000000000000000000000000000000008152600401610ae690611e50565b60405180910390fd5b6000610af96112db565b90506000815111610b195760405180602001604052806000815250610b44565b80610b23846112fb565b604051602001610b34929190611c28565b6040516020818303038152906040525b915050919050565b6000600560008473ffffffffffffffffffffffffffffffffffffffff1673ffffffffffffffffffffffffffffffffffffffff16815260200190815260200160002060008373ffffffffffffffffffffffffffffffffffffffff1673ffffffffffffffffffffffffffffffffffffffff16815260200190815260200160002060009054906101000a900460ff16905092915050565b60007f01ffc9a7000000000000000000000000000000000000000000000000000000007bffffffffffffffffffffffffffffffffffffffffffffffffffffffff1916827bffffffffffffffffffffffffffffffffffffffffffffffffffffffff1916149050919050565b60008073ffffffffffffffffffffffffffffffffffffffff166002600084815260200190815260200160002060009054906101000a900473ffffffffffffffffffffffffffffffffffffffff1673ffffffffffffffffffffffffffffffffffffffff1614159050919050565b600033905090565b816004600083815260200190815260200160002060006101000a81548173ffffffffffffffffffffffffffffffffffffffff021916908373ffffffffffffffffffffffffffffffffffffffff160217905550808273ffffffffffffffffffffffffffffffffffffffff16610d31836106ab565b73ffffffffffffffffffffffffffffffffffffffff167f8c5be1e5ebec7d5bd14f71427d1e84f3dd0314c0f7b2291e5b200ac8c7c3b92560405160405180910390a45050565b6000610d8282610c4a565b610dc1576040517f08c379a0000000000000000000000000000000000000000000000000000000008152600401610db890611d70565b60405180910390fd5b6000610dcc836106ab565b90508073ffffffffffffffffffffffffffffffffffffffff168473ffffffffffffffffffffffffffffffffffffffff161480610e3b57508373ffffffffffffffffffffffffffffffffffffffff16610e238461048e565b73ffffffffffffffffffffffffffffffffffffffff16145b80610e4c5750610e4b8185610b4c565b5b91505092915050565b8273ffffffffffffffffffffffffffffffffffffffff16610e75826106ab565b73ffffffffffffffffffffffffffffffffffffffff1614610ecb576040517f08c379a0000000000000000000000000000000000000000000000000000000008152600401610ec290611e30565b60405180910390fd5b600073ffffffffffffffffffffffffffffffffffffffff168273ffffffffffffffffffffffffffffffffffffffff161415610f3b576040517f08c379a0000000000000000000000000000000000000000000000000000000008152600401610f3290611d30565b60405180910390fd5b610f4683838361145c565b610f51600082610cbe565b6001600360008573ffffffffffffffffffffffffffffffffffffffff1673ffffffffffffffffffffffffffffffffffffffff1681526020019081526020016000206000828254610fa19190611feb565b925050819055506001600360008473ffffffffffffffffffffffffffffffffffffffff1673ffffffffffffffffffffffffffffffffffffffff1681526020019081526020016000206000828254610ff89190611f64565b92505081905550816002600083815260200190815260200160002060006101000a81548173ffffffffffffffffffffffffffffffffffffffff021916908373ffffffffffffffffffffffffffffffffffffffff160217905550808273ffffffffffffffffffffffffffffffffffffffff168473ffffffffffffffffffffffffffffffffffffffff167fddf252ad1be2c89b69c2b068fc378daa952ba7f163c4a11628f55a4df523b3ef60405160405180910390a4505050565b600073ffffffffffffffffffffffffffffffffffffffff168273ffffffffffffffffffffffffffffffffffffffff161415611121576040517f08c379a000000000000000000000000000000000000000000000000000000000815260040161111890611df0565b60405180910390fd5b61112a81610c4a565b1561116a576040517f08c379a000000000000000000000000000000000000000000000000000000000815260040161116190611d10565b60405180910390fd5b6111766000838361145c565b6001600360008473ffffffffffffffffffffffffffffffffffffffff1673ffffffffffffffffffffffffffffffffffffffff16815260200190815260200160002060008282546111c69190611f64565b92505081905550816002600083815260200190815260200160002060006101000a81548173ffffffffffffffffffffffffffffffffffffffff021916908373ffffffffffffffffffffffffffffffffffffffff160217905550808273ffffffffffffffffffffffffffffffffffffffff16600073ffffffffffffffffffffffffffffffffffffffff167fddf252ad1be2c89b69c2b068fc378daa952ba7f163c4a11628f55a4df523b3ef60405160405180910390a45050565b61128a848484610e55565b61129684848484611461565b6112d5576040517f08c379a00000000000000000000000000000000000000000000000000000000081526004016112cc90611cf0565b60405180910390fd5b50505050565b60606040518060600160405280602781526020016126ff60279139905090565b60606000821415611343576040518060400160405280600181526020017f30000000000000000000000000000000000000000000000000000000000000008152509050611457565b600082905060005b6000821461137557808061135e90612138565b915050600a8261136e9190611fba565b915061134b565b60008167ffffffffffffffff8111156113915761139061226e565b5b6040519080825280601f01601f1916602001820160405280156113c35781602001600182028036833780820191505090505b5090505b60008514611450576001826113dc9190611feb565b9150600a856113eb9190612181565b60306113f79190611f64565b60f81b81838151811061140d5761140c61223f565b5b60200101907effffffffffffffffffffffffffffffffffffffffffffffffffffffffffffff1916908160001a905350600a856114499190611fba565b94506113c7565b8093505050505b919050565b505050565b60006114828473ffffffffffffffffffffffffffffffffffffffff166115f8565b156115eb578373ffffffffffffffffffffffffffffffffffffffff1663150b7a026114ab610cb6565b8786866040518563ffffffff1660e01b81526004016114cd9493929190611c67565b602060405180830381600087803b1580156114e757600080fd5b505af192505050801561151857506040513d601f19601f8201168201806040525081019061151591906118d4565b60015b61159b573d8060008114611548576040519150601f19603f3d011682016040523d82523d6000602084013e61154d565b606091505b50600081511415611593576040517f08c379a000000000000000000000000000000000000000000000000000000000815260040161158a90611cf0565b60405180910390fd5b805181602001fd5b63150b7a0260e01b7bffffffffffffffffffffffffffffffffffffffffffffffffffffffff1916817bffffffffffffffffffffffffffffffffffffffffffffffffffffffff1916149150506115f0565b600190505b949350505050565b600080823b905060008111915050919050565b600061161e61161984611ef0565b611ecb565b90508281526020810184848401111561163a576116396122a2565b5b611645848285612093565b509392505050565b60008135905061165c816126a2565b92915050565b600081359050611671816126b9565b92915050565b600081359050611686816126d0565b92915050565b60008151905061169b816126d0565b92915050565b600082601f8301126116b6576116b561229d565b5b81356116c684826020860161160b565b91505092915050565b6000813590506116de816126e7565b92915050565b6000602082840312156116fa576116f96122ac565b5b60006117088482850161164d565b91505092915050565b60008060408385031215611728576117276122ac565b5b60006117368582860161164d565b92505060206117478582860161164d565b9150509250929050565b60008060006060848603121561176a576117696122ac565b5b60006117788682870161164d565b93505060206117898682870161164d565b925050604061179a868287016116cf565b9150509250925092565b600080600080608085870312156117be576117bd6122ac565b5b60006117cc8782880161164d565b94505060206117dd8782880161164d565b93505060406117ee878288016116cf565b925050606085013567ffffffffffffffff81111561180f5761180e6122a7565b5b61181b878288016116a1565b91505092959194509250565b6000806040838503121561183e5761183d6122ac565b5b600061184c8582860161164d565b925050602061185d85828601611662565b9150509250929050565b6000806040838503121561187e5761187d6122ac565b5b600061188c8582860161164d565b925050602061189d858286016116cf565b9150509250929050565b6000602082840312156118bd576118bc6122ac565b5b60006118cb84828501611677565b91505092915050565b6000602082840312156118ea576118e96122ac565b5b60006118f88482850161168c565b91505092915050565b600060208284031215611917576119166122ac565b5b6000611925848285016116cf565b91505092915050565b60008060408385031215611945576119446122ac565b5b6000611953858286016116cf565b92505060206119648582860161164d565b9150509250929050565b6119778161201f565b82525050565b61198681612031565b82525050565b600061199782611f21565b6119a18185611f37565b93506119b18185602086016120a2565b6119ba816122b1565b840191505092915050565b60006119d082611f2c565b6119da8185611f48565b93506119ea8185602086016120a2565b6119f3816122b1565b840191505092915050565b6000611a0982611f2c565b611a138185611f59565b9350611a238185602086016120a2565b80840191505092915050565b6000611a3c603283611f48565b9150611a47826122c2565b604082019050919050565b6000611a5f601c83611f48565b9150611a6a82612311565b602082019050919050565b6000611a82602483611f48565b9150611a8d8261233a565b604082019050919050565b6000611aa5601983611f48565b9150611ab082612389565b602082019050919050565b6000611ac8602c83611f48565b9150611ad3826123b2565b604082019050919050565b6000611aeb603883611f48565b9150611af682612401565b604082019050919050565b6000611b0e602a83611f48565b9150611b1982612450565b604082019050919050565b6000611b31602983611f48565b9150611b3c8261249f565b604082019050919050565b6000611b54602083611f48565b9150611b5f826124ee565b602082019050919050565b6000611b77602c83611f48565b9150611b8282612517565b604082019050919050565b6000611b9a602983611f48565b9150611ba582612566565b604082019050919050565b6000611bbd602f83611f48565b9150611bc8826125b5565b604082019050919050565b6000611be0602183611f48565b9150611beb82612604565b604082019050919050565b6000611c03603183611f48565b9150611c0e82612653565b604082019050919050565b611c2281612089565b82525050565b6000611c3482856119fe565b9150611c4082846119fe565b91508190509392505050565b6000602082019050611c61600083018461196e565b92915050565b6000608082019050611c7c600083018761196e565b611c89602083018661196e565b611c966040830185611c19565b8181036060830152611ca8818461198c565b905095945050505050565b6000602082019050611cc8600083018461197d565b92915050565b60006020820190508181036000830152611ce881846119c5565b905092915050565b60006020820190508181036000830152611d0981611a2f565b9050919050565b60006020820190508181036000830152611d2981611a52565b9050919050565b60006020820190508181036000830152611d4981611a75565b9050919050565b60006020820190508181036000830152611d6981611a98565b9050919050565b60006020820190508181036000830152611d8981611abb565b9050919050565b60006020820190508181036000830152611da981611ade565b9050919050565b60006020820190508181036000830152611dc981611b01565b9050919050565b60006020820190508181036000830152611de981611b24565b9050919050565b60006020820190508181036000830152611e0981611b47565b9050919050565b60006020820190508181036000830152611e2981611b6a565b9050919050565b60006020820190508181036000830152611e4981611b8d565b9050919050565b60006020820190508181036000830152611e6981611bb0565b9050919050565b60006020820190508181036000830152611e8981611bd3565b9050919050565b60006020820190508181036000830152611ea981611bf6565b9050919050565b6000602082019050611ec56000830184611c19565b92915050565b6000611ed5611ee6565b9050611ee18282612107565b919050565b6000604051905090565b600067ffffffffffffffff821115611f0b57611f0a61226e565b5b611f14826122b1565b9050602081019050919050565b600081519050919050565b600081519050919050565b600082825260208201905092915050565b600082825260208201905092915050565b600081905092915050565b6000611f6f82612089565b9150611f7a83612089565b9250827fffffffffffffffffffffffffffffffffffffffffffffffffffffffffffffffff03821115611faf57611fae6121b2565b5b828201905092915050565b6000611fc582612089565b9150611fd083612089565b925082611fe057611fdf6121e1565b5b828204905092915050565b6000611ff682612089565b915061200183612089565b925082821015612014576120136121b2565b5b828203905092915050565b600061202a82612069565b9050919050565b60008115159050919050565b60007fffffffff0000000000000000000000000000000000000000000000000000000082169050919050565b600073ffffffffffffffffffffffffffffffffffffffff82169050919050565b6000819050919050565b82818337600083830152505050565b60005b838110156120c05780820151818401526020810190506120a5565b838111156120cf576000848401525b50505050565b600060028204905060018216806120ed57607f821691505b6020821081141561210157612100612210565b5b50919050565b612110826122b1565b810181811067ffffffffffffffff8211171561212f5761212e61226e565b5b80604052505050565b600061214382612089565b91507fffffffffffffffffffffffffffffffffffffffffffffffffffffffffffffffff821415612176576121756121b2565b5b600182019050919050565b600061218c82612089565b915061219783612089565b9250826121a7576121a66121e1565b5b828206905092915050565b7f4e487b7100000000000000000000000000000000000000000000000000000000600052601160045260246000fd5b7f4e487b7100000000000000000000000000000000000000000000000000000000600052601260045260246000fd5b7f4e487b7100000000000000000000000000000000000000000000000000000000600052602260045260246000fd5b7f4e487b7100000000000000000000000000000000000000000000000000000000600052603260045260246000fd5b7f4e487b7100000000000000000000000000000000000000000000000000000000600052604160045260246000fd5b600080fd5b600080fd5b600080fd5b600080fd5b6000601f19601f8301169050919050565b7f4552433732313a207472616e7366657220746f206e6f6e20455243373231526560008201527f63656976657220696d706c656d656e7465720000000000000000000000000000602082015250565b7f4552433732313a20746f6b656e20616c7265616479206d696e74656400000000600082015250565b7f4552433732313a207472616e7366657220746f20746865207a65726f2061646460008201527f7265737300000000000000000000000000000000000000000000000000000000602082015250565b7f4552433732313a20617070726f766520746f2063616c6c657200000000000000600082015250565b7f4552433732313a206f70657261746f7220717565727920666f72206e6f6e657860008201527f697374656e7420746f6b656e0000000000000000000000000000000000000000602082015250565b7f4552433732313a20617070726f76652063616c6c6572206973206e6f74206f7760008201527f6e6572206e6f7220617070726f76656420666f7220616c6c0000000000000000602082015250565b7f4552433732313a2062616c616e636520717565727920666f7220746865207a6560008201527f726f206164647265737300000000000000000000000000000000000000000000602082015250565b7f4552433732313a206f776e657220717565727920666f72206e6f6e657869737460008201527f656e7420746f6b656e0000000000000000000000000000000000000000000000602082015250565b7f4552433732313a206d696e7420746f20746865207a65726f2061646472657373600082015250565b7f4552433732313a20617070726f76656420717565727920666f72206e6f6e657860008201527f697374656e7420746f6b656e0000000000000000000000000000000000000000602082015250565b7f4552433732313a207472616e73666572206f6620746f6b656e2074686174206960008201527f73206e6f74206f776e0000000000000000000000000000000000000000000000602082015250565b7f4552433732314d657461646174613a2055524920717565727920666f72206e6f60008201527f6e6578697374656e7420746f6b656e0000000000000000000000000000000000602082015250565b7f4552433732313a20617070726f76616c20746f2063757272656e74206f776e6560008201527f7200000000000000000000000000000000000000000000000000000000000000602082015250565b7f4552433732313a207472616e736665722063616c6c6572206973206e6f74206f60008201527f776e6572206e6f7220617070726f766564000000000000000000000000000000602082015250565b6126ab8161201f565b81146126b657600080fd5b50565b6126c281612031565b81146126cd57600080fd5b50565b6126d98161203d565b81146126e457600080fd5b50565b6126f081612089565b81146126fb57600080fd5b5056fe68747470733a2f2f6578616d706c652e636f6d2f746f6b656e2f3732312f6d657461646174612fa264697066735822122042f62a3ff39f2ef690c0fe420894a56673af4a7223c99500f1bb291fc3c393ac64736f6c63430008060033",
  "linkReferences": {},
  "deployedLinkReferences": {}
}